:100000000C9453000C947B000C947B000C947B00AC
:100010000C947B000C947B000C947B000C947B0074
:100020000C947B000C947B000C947B000C947B0064
:100030000C947B000C947B000C947B000C947B0054
:100040000C942E030C947B000C949E030C94780368
:100050000C947B000C947B000C947B000C947B0034
:100060000C947B000C947B0000000000250028000D
:100070002B0000000000240027002A0004040404D0
:100080000404040402020202020203030303030342
:10009000010204081020408001020408102001021F
:1000A00004081020DF0511241FBECFEFD8E0DEBF0B
:1000B000CDBF11E0A0E0B1E0ECE5F1E102C00590B8
:1000C0000D92A239B107D9F722E0A2E9B1E001C04F
:1000D0001D92A834B207E1F710E0C3E5D0E004C0F8
:1000E0002197FE010E94A608C235D107C9F70E94D8
:1000F000D0030C94AC080C9400008E508064809364
:100100007C0080917A00806480937A0080917A00EC
:1001100086FDFCCF809178009091790008953FB7DB
:10012000F8948091A7019091A801A091A901B091A4
:10013000AA0126B5A89B05C02F3F19F00196A11D65
:10014000B11D3FBFBA2FA92F982F8827BC01CD0121
:10015000620F711D811D911D42E0660F771F881F80
:10016000991F4A95D1F708958F929F92AF92BF92AF
:10017000CF92DF92EF92FF924B015C010E948F00C1
:100180006B017C010E948F006C197D098E099F090B
:10019000683E734081059105A8F321E0821A910819
:1001A000A108B10888EEC80E83E0D81EE11CF11C3E
:1001B00081149104A104B10429F7FF90EF90DF901E
:1001C000CF90BF90AF909F908F900895AF92BF92C5
:1001D000CF92DF92EF92FF920F931F93CF93DF9313
:1001E0006C017B018B01040F151FEB015E01AE1842
:1001F000BF08C017D10759F06991D601ED91FC9164
:100200000190F081E02DC6010995892B79F7C50190
:10021000DF91CF911F910F91FF90EF90DF90CF90E2
:10022000BF90AF900895FC01538D448D252F30E091
:10023000842F90E0821B930B541710F0CF960895F3
:1002400001970895FC01918D828D981761F0A28D20
:10025000AE0FBF2FB11D5D968C91928D9F5F9F73E6
:10026000928F90E008958FEF9FEF0895FC01918D9C
:10027000828D981731F0828DE80FF11D858D90E009
:1002800008958FEF9FEF0895FC01918D228D892FA6
:1002900090E0805C9F4F821B91098F73992708958E
:1002A0008BEA91E00E94440121E0892B09F420E0CF
:1002B000822F089580E090E0892B29F00E94500160
:1002C00081110C9400000895FC01A48DA80FB92F92
:1002D000B11DA35ABF4F2C91848D90E001968F736E
:1002E0009927848FA689B7892C93A089B1898C918D
:1002F000837080648C93938D848D981306C00288DC
:10030000F389E02D80818F7D80830895EF92FF92A5
:100310000F931F93CF93DF93EC0181E0888F9B8D28
:100320008C8D98131AC0E889F989808185FF15C0E2
:100330009FB7F894EE89FF896083E889F989808105
:100340008370806480839FBF81E090E0DF91CF91D4
:100350001F910F91FF90EF900895F62E0B8D10E0F6
:100360000F5F1F4F0F731127E02E8C8D8E110CC065
:100370000FB607FCFACFE889F989808185FFF5CFB0
:10038000CE010E946401F1CFEB8DEC0FFD2FF11D2A
:10039000E35AFF4FF0829FB7F8940B8FEA89FB89ED
:1003A00080818062CFCFCF93DF93EC01888D88234B
:1003B000B9F0AA89BB89E889F9898C9185FD03C0C8
:1003C000808186FD0DC00FB607FCF7CF8C9185FFAD
:1003D000F2CF808185FFEDCFCE010E946401E9CF8D
:1003E000DF91CF910895FC0101900020E9F731974A
:1003F000AF01481B590BBC018BEA91E00C94E6005D
:100400008F929F92AF92BF920F931F93CF93DF93E0
:10041000CDB7DEB7A1970FB6F894DEBF0FBECDBF44
:1004200019A2423008F44AE08E010F5D1F4F842E5E
:10043000912CB12CA12CA50194010E942B06E62F32
:10044000B901CA01EA30F4F4E05DD801EE938D0100
:10045000232B242B252B79F790E080E0109719F0BF
:10046000CD010E94F301A1960FB6F894DEBF0FBE36
:10047000CDBFDF91CF911F910F91BF90AF909F9013
:100480008F900895E95CE1CFCF93DF930E94F30151
:10049000EC0186E191E00E94F3018C0F9D1FDF913A
:1004A000CF9108954F925F926F927F928F929F9219
:1004B000AF92BF92CF92DF92EF92FF920F931F9372
:1004C000CF936B017C01742EAC019B010E949A08B2
:1004D000882399F089E191E0CF911F910F91FF90CE
:1004E000EF90DF90CF90BF90AF909F908F907F90D4
:1004F0006F905F904F900C94F30146015701E89480
:10050000B7F82FEF3FEF4FE75FE7C501B4010E9457
:100510009A0881110DC02FEF3FEF4FE75FE7C5014C
:10052000B4010E94C90618161CF48DE191E0D4CFE5
:100530002FEF3FEF4FE75FE4C701B6010E942808A5
:1005400018161CF481E291E0C7CF2FEF3FEF4FE781
:100550005FECC701B6010E94C90687FDF3CF20E01A
:1005600030E0A901C701B6010E94C90610E000E011
:1005700087FF0AC06DE28BEA91E00E9486018C0140
:10058000F7FAF094F7F8F094C0E060E070E080E0F3
:100590009FE37C1641F020E030E040E251E40E940D
:1005A000CE06CF5FF6CFA70196010E945D062B0114
:1005B0003C010E9447074B015C014AE00E94000297
:1005C0007C01E00EF11ECC23C1F1C501B4010E94F3
:1005D00076079B01AC01C301B2010E945C064B018E
:1005E0005C016EE28BEA91E00E948601E80EF91E42
:1005F000C15018F120E030E040E251E4C501B401FF
:100600000E942D082B013C010E9447074B01B12C91
:10061000A12C4AE0C501B4010E940002E80EF91EB7
:10062000C501B4010E9476079B01AC01C301B20170
:100630000E945C064B015C01DBCFC701CF911F918B
:100640000F91FF90EF90DF90CF90BF90AF909F9071
:100650008F907F906F905F904F9008951F920F92B0
:100660000FB60F9211242F933F938F939F93AF93C5
:10067000BF938091A3019091A401A091A501B09195
:10068000A6013091A20123E0230F2D3758F50196E2
:10069000A11DB11D2093A2018093A3019093A401F9
:1006A000A093A501B093A6018091A7019091A80104
:1006B000A091A901B091AA010196A11DB11D80933D
:1006C000A7019093A801A093A901B093AA01BF919B
:1006D000AF919F918F913F912F910F900FBE0F90EF
:1006E0001F90189526E8230F0296A11DB11DD2CFA9
:1006F0001F920F920FB60F9211242F933F934F9397
:100700005F936F937F938F939F93AF93BF93EF9379
:10071000FF938BEA91E00E946401FF91EF91BF91FA
:10072000AF919F918F917F916F915F914F913F9189
:100730002F910F900FBE0F901F9018951F920F9240
:100740000FB60F9211242F938F939F93EF93FF93E4
:10075000E091BB01F091BC018081E091C101F09179
:10076000C20182FD1BC090818091C4018F5F8F7395
:100770002091C501821741F0E091C401F0E0E555F8
:10078000FE4F958F8093C401FF91EF919F918F91C0
:100790002F910F900FBE0F901F9018958081F4CF6E
:1007A000789484B5826084BD84B5816084BD85B54C
:1007B000826085BD85B5816085BD80916E00816058
:1007C00080936E00109281008091810082608093FE
:1007D0008100809181008160809381008091800000
:1007E0008160809380008091B10084608093B1002B
:1007F0008091B00081608093B00080917A00846025
:1008000080937A0080917A00826080937A00809150
:100810007A00816080937A0080917A00806880936A
:100820007A001092C100E3E9F0E02491EFE7F0E0F4
:100830008491882399F090E0880F991FFC01EE586D
:10084000FF4FA591B491FC01E859FF4F8591949118
:100850008FB7F894EC91E22BEC938FBFE091BB0142
:10086000F091BC0182E08083E091B701F091B80182
:100870001082E091B901F091BA018FEC808310925F
:10088000C301E091BF01F091C00186E08083E09157
:10089000BD01F091BE01808180618083E091BD0146
:1008A000F091BE01808188608083E091BD01F0916C
:1008B000BE01808180688083E091BD01F091BE011E
:1008C00080818F7D808364EF71E080E090E00E9402
:1008D000B40085E291E00E94440289E491E00E9424
:1008E000440283E28093B00089E08093B1008FE9F5
:1008F0008093B3001092B40088248A9433E0932E3E
:10090000A12CB12CC0E0D0E08FE00E947D0026EE4B
:1009100030E0DC010E949F08A50194010E940C06B2
:10092000CA01B90168587F4F8F4F9F4F0E947807C7
:1009300020E030E040E251E40E94CE066B017C01F1
:10094000C0929E01D0929F01E092A001F092A1017D
:100950008EE00E947D00BC01990F880B990B0E94CC
:10096000780720E030E040EA5BE30E942D0820E0B9
:1009700030E040E351E40E942D089B01AC0120933C
:100980009A0130939B0140939C0150939D01C701B4
:10099000B6010E945C062B013C012091960130912A
:1009A000970140919801509199010E945D066B0159
:1009B0007C0120E030E048E452EC0E94C90687FD4B
:1009C0008DC020E030E048E452E4C701B6010E9447
:1009D000280818160CF489C0C0929601D09297018D
:1009E000E0929801F09299012DEC3CEC4CEC5EE326
:1009F000C301B2010E942D082B013C012AE037ED12
:100A000043E25DE3C701B6010E942D089B01AC01E2
:100A1000C301B2010E945D062091920130919301C1
:100A200040919401509195010E945D066B017C01FB
:100A300020E030E0A9010E94C90687FD5DC020E0EA
:100A400030E047E053E4C701B6010E9428081816B9
:100A50000CF456C0C0929201D0929301E09294019E
:100A6000F0929501C701B6010E9440076093B4005F
:100A70002091000130910101409102015091030148
:100A800060919E0170919F018091A0019091A101C0
:100A90000E945C066B017C0120E030E0A9010E940D
:100AA00028081816A4F52DEC3CEC4CE45EE3C701D5
:100AB000B6010E9428081816A4F164E170E080E0F5
:100AC00090E00E94B400209709F41ECF0E945001CC
:100AD000882309F419CF0E94000016CFC12CD12C15
:100AE00028E4E22E22ECF22E77CFC12CD12C98E410
:100AF000E92E92E4F92E70CFC12CD12C7601AACF29
:100B0000C12CD12C87E0E82E83E4F82EA3CF2DEC66
:100B10003CEC4CE45EEBC701B6010E94C90687FFBE
:100B2000CCCF84E691E00E94F30160919E01709128
:100B30009F018091A0019091A10142E00E94520288
:100B400085E791E00E94F30160919A0170919B0109
:100B500080919C0190919D0142E00E94520284E8A4
:100B600091E00E94F30120E030E04FE153E4609116
:100B700092017091930180919401909195010E944E
:100B8000CE0620E030E048EC52E40E942D0842E01E
:100B90000E9452028FE891E00E94440280919E01DF
:100BA00090919F01A091A001B091A10180930001BB
:100BB00090930101A0930201B09303017ECFEBEA71
:100BC000F1E01382128288EE93E0A0E0B0E084832B
:100BD0009583A683B78388E091E09183808385EC39
:100BE00090E09587848784EC90E09787868780ECF7
:100BF00090E0918B808B81EC90E0938B828B82ECE8
:100C000090E0958B848B86EC90E0978B868B118E91
:100C1000128E138E148E0895052E97FB1EF40094E9
:100C20000E94230657FD07D00E942B0607FC03D025
:100C30004EF40C94230650954095309521953F4FE6
:100C40004F4F5F4F089590958095709561957F4FB8
:100C50008F4F9F4F0895A1E21A2EAA1BBB1BFD01C7
:100C60000DC0AA1FBB1FEE1FFF1FA217B307E4078B
:100C7000F50720F0A21BB30BE40BF50B661F771FE3
:100C8000881F991F1A9469F76095709580959095C3
:100C90009B01AC01BD01CF010895A29FB001B39F9C
:100CA000C001A39F700D811D1124911DB29F700D75
:100CB000811D1124911D08955058BB27AA270E9419
:100CC00074060C94EE070E94E00738F00E94E707D4
:100CD00020F039F49F3F19F426F40C94DD070EF44C
:100CE000E095E7FB0C94D707E92F0E94FF0758F324
:100CF000BA17620773078407950720F079F4A6F501
:100D00000C9421080EF4E0950B2EBA2FA02D0B01A8
:100D1000B90190010C01CA01A0011124FF27591B40
:100D200099F0593F50F4503E68F11A16F040A22F46
:100D3000232F342F4427585FF3CF469537952795B7
:100D4000A795F0405395C9F77EF41F16BA0B620BB6
:100D5000730B840BBAF09150A1F0FF0FBB1F661FFD
:100D6000771F881FC2F70EC0BA0F621F731F841F40
:100D700048F4879577956795B795F7959E3F08F066
:100D8000B0CF9395880F08F09927EE0F9795879528
:100D900008950E94B30708F481E008950E94E206D6
:100DA0000C94EE070E94E70758F00E94E00740F01D
:100DB00029F45F3F29F00C94D70751110C942208B5
:100DC0000C94DD070E94FF0768F39923B1F35523C4
:100DD00091F3951B550BBB27AA276217730784074E
:100DE00038F09F5F5F4F220F331F441FAA1FA9F3E4
:100DF00035D00E2E3AF0E0E832D091505040E695D2
:100E0000001CCAF72BD0FE2F29D0660F771F881F32
:100E1000BB1F261737074807AB07B0E809F0BB0B25
:100E2000802DBF01FF2793585F4F3AF09E3F510539
:100E300078F00C94D7070C9422085F3FE4F3983EB7
:100E4000D4F3869577956795B795F7959F5FC9F722
:100E5000880F911D9695879597F90895E1E0660FA3
:100E6000771F881FBB1F621773078407BA0720F01C
:100E7000621B730B840BBA0BEE1F88F7E095089585
:100E80000E9447076894B1110C94220808950E94AB
:100E9000070888F09F5798F0B92F9927B751B0F0FD
:100EA000E1F0660F771F881F991F1AF0BA95C9F7EE
:100EB00014C0B13091F00E942108B1E008950C9463
:100EC0002108672F782F8827B85F39F0B93FCCF316
:100ED000869577956795B395D9F73EF4909580956B
:100EE000709561957F4F8F4F9F4F0895E89409C08B
:100EF00097FB3EF490958095709561957F4F8F4F4D
:100F00009F4F9923A9F0F92F96E9BB279395F69562
:100F1000879577956795B795F111F8CFFAF4BB0FE0
:100F200011F460FF1BC06F5F7F4F8F4F9F4F16C044
:100F3000882311F096E911C0772321F09EE8872FCE
:100F4000762F05C0662371F096E8862F70E060E08A
:100F50002AF09A95660F771F881FDAF7880F969503
:100F6000879597F90895990F0008550FAA0BE0E8A7
:100F7000FEEF16161706E807F907C0F0121613065B
:100F8000E407F50798F0621B730B840B950B39F49B
:100F90000A2661F0232B242B252B21F408950A2601
:100FA00009F4A140A6958FEF811D811D089597F941
:100FB0009F6780E870E060E008959FEF80EC0895FF
:100FC00000240A9416161706180609060895002428
:100FD0000A9412161306140605060895092E0394A2
:100FE000000C11F4882352F0BB0F40F4BF2B11F416
:100FF00060FF04C06F5F7F4F8F4F9F4F089557FD75
:101000009058440F551F59F05F3F71F04795880F76
:1010100097FB991F61F09F3F79F08795089512160D
:1010200013061406551FF2CF4695F1DF08C01616B9
:1010300017061806991FF1CF86957105610508946A
:101040000895E894BB2766277727CB0197F9089581
:101050000E94B30708F48FEF08950E9440080C9493
:10106000EE070E94E00738F00E94E70720F0952382
:1010700011F00C94D7070C94DD0711240C9422086E
:101080000E94FF0770F3959FC1F3950F50E0551F25
:10109000629FF001729FBB27F00DB11D639FAA27CD
:1010A000F00DB11DAA1F649F6627B00DA11D661F1C
:1010B000829F2227B00DA11D621F739FB00DA11D3D
:1010C000621F839FA00D611D221F749F3327A00DF7
:1010D000611D231F849F600D211D822F762F6A2F93
:1010E00011249F5750409AF0F1F088234AF0EE0FF8
:1010F000FF1FBB1F661F771F881F91505040A9F725
:101100009E3F510580F00C94D7070C9422085F3F56
:10111000E4F3983ED4F3869577956795B795F79560
:10112000E7959F5FC1F7FE2B880F911D96958795D8
:1011300097F908950E94B307880B990B08950E94B0
:101140004D06B7FF0895821B930B0895EE0FFF1F06
:0C1150000590F491E02D0994F894FFCF75
:10115C00000080BF000000008601E6001301D301EF
:10116C004401220136010D0A006E616E00696E6643
:10117C00006F7666002D2D2D20424F4F5354204387
:10118C004F4E56455254455220494E495449414CB4
:10119C00495A4544202D2D2D004672657175656E9A
:1011AC0063793A203130306B487A207C2050696E5C
:1011BC003A2033004E455720544152474554205352
:1011CC0045543A200056207C204665656462616374
:1011DC006B3A200056207C20447574793A20002507
:0211EC00000001
:00000001FF
